:100000000C945D000C9485000C9485000C94850084
:100010000C9485000C9485000C9485000C9485004C
:100020000C9485000C9485000C9485000C9485003C
:100030000C9485000C9485000C9485000C9485002C
:100040000C9449020C9485000C94B9020C94930210
:100050000C9485000C9485000C9485000C9485000C
:100060000C9485000C94850000000008000201003B
:100070000003040700000000000000000000000072
:10008000250028002B0000000000240027002A0083
:10009000040404040404040402020202020203032E
:1000A0000303030301020408102040800102040836
:1000B00010200102040810208C0311241FBECFEF72
:1000C000D8E0DEBFCDBF11E0A0E0B1E0ECE8F7E0A2
:1000D00002C005900D92A031B107D9F721E0A0E14F
:1000E000B1E001C01D92A63BB207E1F710E0CDE5FB
:1000F000D0E004C02197FE010E94B903CC35D1079E
:10010000C9F70E94EB020C94C4030C94000090E029
:10011000FC01EC55FF4F2491FC01E057FF4F849107
:10012000882399F090E0880F991FFC01EA57FF4F50
:10013000A591B491FC01E458FF4F859194918FB73C
:10014000F894EC91E22BEC938FBF0895CF92DF925D
:10015000EF92FF920F931F93CF93DF936C017A017D
:100160008B01C0E0D0E0CE15DF0589F0D8016D919C
:100170008D01D601ED91FC910190F081E02DC60139
:100180000995892B11F47E0102C02196ECCFC7019D
:10019000DF91CF911F910F91FF90EF90DF90CF9063
:1001A0000895FC01918D828D981761F0828DDF0199
:1001B000A80FB11D5D968C91928D9F5F9F73928F5A
:1001C00090E008958FEF9FEF0895FC01918D828D4F
:1001D000981731F0828DE80FF11D858D90E008951C
:1001E0008FEF9FEF0895FC01918D228D892F90E074
:1001F000805C9F4F821B91098F739927089580E13E
:1002000091E00E94F30021E0892B09F420E0822F85
:100210000895FC01848DDF01A80FB11DA35ABF4FC3
:100220002C91848D90E001968F739927848FA689F5
:10023000B7892C93A089B1898C9180648C93938D1C
:10024000848D981306C00288F389E02D80818F7D0C
:1002500080830895EF92FF920F931F93CF93DF93C4
:10026000EC0181E0888F9B8D8C8D981305C0E88907
:10027000F989808185FD24C0F62E0B8D10E00F5F7B
:100280001F4F0F731127E02E8C8DE8120CC00FB694
:1002900007FCFACFE889F989808185FFF5CFCE0187
:1002A0000E940901F1CF8B8DFE01E80FF11DE35A89
:1002B000FF4FF0820B8FEA89FB898081806207C043
:1002C000EE89FF896083E889F98980818064808371
:1002D00081E090E0DF91CF911F910F91FF90EF901F
:1002E0000895CF93DF93EC01888D8823C9F0EA89C4
:1002F000FB89808185FD05C0A889B9898C9186FD1F
:100300000FC00FB607FCF5CF808185FFF2CFA8891B
:10031000B9898C9185FFEDCFCE010E940901E7CF0D
:10032000DF91CF91089580E090E0892B29F00E9421
:10033000FF0081110C940000089590E0FC01E85941
:10034000FF4F3491FC01EC55FF4F2491FC01E05725
:10035000FF4FE491EE2309F43BC0332339F13330EE
:1003600091F038F43130A9F0323001F584B58F7D49
:1003700012C0373091F03830A1F03430B9F48091A8
:1003800080008F7D03C0809180008F7780938000F4
:100390000DC084B58F7784BD09C08091B0008F7780
:1003A00003C08091B0008F7D8093B000F0E0EE0F2D
:1003B000FF1FE458FF4FA591B4918FB7F894EC91CB
:1003C000611103C020952E2301C02E2B2C938FBFCB
:1003D00008951F93CF93DF93182FEB010E9487009E
:1003E000209711F460E004C0CF3FD10539F461E0FB
:1003F000812FDF91CF911F910C949D01E12FF0E0AF
:10040000E859FF4FE491E330F9F048F4E130B9F0F6
:10041000E230A1F584B5806284BDC8BD34C0E73048
:10042000E9F0E83019F1E43049F58091800080620C
:1004300080938000D0938B00C0938A0024C084B541
:10044000806884BDC7BD1FC0809180008068809394
:100450008000D0938900C093880015C08091B000BF
:1004600080688093B000C093B3000DC08091B0004D
:1004700080628093B000C093B40005C0C038D1053D
:100480000CF0B5CFAFCFDF91CF911F9108950E94AF
:10049000BF031F920F920FB60F9211242F933F9319
:1004A0008F939F93AF93BF938091B2019091B301CB
:1004B000A091B401B091B5013091B10123E0230FB7
:1004C0002D3720F40196A11DB11D05C026E8230F8C
:1004D0000296A11DB11D2093B1018093B2019093AA
:1004E000B301A093B401B093B5018091AD01909197
:1004F000AE01A091AF01B091B0010196A11DB11D57
:100500008093AD019093AE01A093AF01B093B00181
:10051000BF91AF919F918F913F912F910F900FBEFF
:100520000F901F9018951F920F920FB60F921124E3
:100530002F933F934F935F936F937F938F939F93EB
:10054000AF93BF93EF93FF9380E191E00E94090185
:10055000FF91EF91BF91AF919F918F917F916F919B
:100560005F914F913F912F910F900FBE0F901F9071
:1005700018951F920F920FB60F9211242F938F93FD
:100580009F93EF93FF93E0912001F09121018081EF
:10059000E0912601F091270182FD12C090818091A7
:1005A00029018F5F8F7320912A01821751F0E0910A
:1005B0002901F0E0E05FFE4F958F8093290101C093
:1005C0008081FF91EF919F918F912F910F900FBE9E
:1005D0000F901F901895789484B5826084BD84B57F
:1005E000816084BD85B5826085BD85B5816085BD2E
:1005F00080916E00816080936E00109281008091E6
:10060000810082608093810080918100816080936D
:100610008100809180008160809380008091B10092
:1006200084608093B1008091B00081608093B000BD
:1006300080917A00846080937A0080917A00826051
:1006400080937A0080917A00816080937A00809113
:100650007A00806880937A001092C10085E00E9441
:1006600087006FEF70E085E00E94E90186E00E945C
:1006700087006FEF70E086E00E94E901E0912001C1
:10068000F091210182E08083E0911C01F0911D0135
:100690001082E0911E01F0911F0180E18083109291
:1006A0002801E0912401F091250186E08083E0910A
:1006B0002201F0912301808180618083E0912201F9
:1006C000F0912301808188608083E0912201F09184
:1006D0002301808180688083E0912201F0912301D1
:1006E00080818F7D808380E191E00E94F3000297FA
:1006F00084F080E191E00E94D100BC0185E00E947D
:10070000E90180E191E00E94D100BC0186E00E94F5
:10071000E9010E949301E7CFE0E1F1E01382128248
:1007200088EE93E0A0E0B0E084839583A683B7834E
:1007300084E091E09183808385EC90E095878487C5
:1007400084EC90E09787868780EC90E0918B808B9B
:1007500081EC90E0938B828B82EC90E0958B848B84
:1007600086EC90E0978B868B118E128E138E148EF2
:100770000895EE0FFF1F0590F491E02D099481E09C
:0C07800090E0F8940C94C403F894FFCFB0
:10078C00000000002A01A600F300D100E500710171
:00000001FF
